{
  "_format": "hh-sol-artifact-1",
  "contractName": "Shop",
  "sourceName": "contracts/shop.sol",
  "abi": [
    {
      "inputs": [],
      "stateMutability": "nonpayable",
      "type": "constructor"
    },
    {
      "anonymous": false,
      "inputs": [
        {
          "indexed": true,
          "internalType": "address",
          "name": "oldOwner",
          "type": "address"
        },
        {
          "indexed": true,
          "internalType": "address",
          "name": "newOwner",
          "type": "address"
        }
      ],
      "name": "OwnerSet",
      "type": "event"
    },
    {
      "inputs": [
        {
          "internalType": "uint256",
          "name": "id",
          "type": "uint256"
        },
        {
          "internalType": "string",
          "name": "name",
          "type": "string"
        },
        {
          "internalType": "string",
          "name": "deliverAddress",
          "type": "string"
        },
        {
          "internalType": "string",
          "name": "tel",
          "type": "string"
        }
      ],
      "name": "buyPicture",
      "outputs": [],
      "stateMutability": "payable",
      "type": "function"
    },
    {
      "inputs": [
        {
          "internalType": "uint256",
          "name": "price",
          "type": "uint256"
        },
        {
          "internalType": "string",
          "name": "path",
          "type": "string"
        },
        {
          "internalType": "string",
          "name": "picName",
          "type": "string"
        }
      ],
      "name": "createSellPic",
      "outputs": [],
      "stateMutability": "nonpayable",
      "type": "function"
    },
    {
      "inputs": [],
      "name": "getPic",
      "outputs": [
        {
          "internalType": "string[]",
          "name": "",
          "type": "string[]"
        },
        {
          "internalType": "string[]",
          "name": "",
          "type": "string[]"
        },
        {
          "internalType": "uint256[]",
          "name": "",
          "type": "uint256[]"
        },
        {
          "internalType": "uint256[]",
          "name": "",
          "type": "uint256[]"
        }
      ],
      "stateMutability": "view",
      "type": "function"
    },
    {
      "inputs": [],
      "name": "getPicTable",
      "outputs": [
        {
          "internalType": "uint256[]",
          "name": "",
          "type": "uint256[]"
        },
        {
          "internalType": "string[]",
          "name": "",
          "type": "string[]"
        },
        {
          "internalType": "string[]",
          "name": "",
          "type": "string[]"
        },
        {
          "internalType": "uint256[]",
          "name": "",
          "type": "uint256[]"
        },
        {
          "internalType": "string[]",
          "name": "",
          "type": "string[]"
        },
        {
          "internalType": "string[]",
          "name": "",
          "type": "string[]"
        },
        {
          "internalType": "string[]",
          "name": "",
          "type": "string[]"
        },
        {
          "internalType": "uint256[]",
          "name": "",
          "type": "uint256[]"
        },
        {
          "internalType": "string[]",
          "name": "",
          "type": "string[]"
        },
        {
          "internalType": "address[]",
          "name": "",
          "type": "address[]"
        }
      ],
      "stateMutability": "view",
      "type": "function"
    },
    {
      "inputs": [
        {
          "internalType": "uint256",
          "name": "",
          "type": "uint256"
        }
      ],
      "name": "pictures",
      "outputs": [
        {
          "internalType": "address",
          "name": "addressWallet",
          "type": "address"
        },
        {
          "internalType": "string",
          "name": "picName",
          "type": "string"
        },
        {
          "internalType": "string",
          "name": "name",
          "type": "string"
        },
        {
          "internalType": "uint256",
          "name": "price",
          "type": "uint256"
        },
        {
          "internalType": "string",
          "name": "deliverAddress",
          "type": "string"
        },
        {
          "internalType": "string",
          "name": "tel",
          "type": "string"
        },
        {
          "internalType": "string",
          "name": "path",
          "type": "string"
        },
        {
          "internalType": "uint256",
          "name": "status",
          "type": "uint256"
        },
        {
          "internalType": "string",
          "name": "trackingNumber",
          "type": "string"
        }
      ],
      "stateMutability": "view",
      "type": "function"
    },
    {
      "inputs": [
        {
          "internalType": "uint256",
          "name": "id",
          "type": "uint256"
        },
        {
          "internalType": "string",
          "name": "tracking",
          "type": "string"
        }
      ],
      "name": "sendPicture",
      "outputs": [],
      "stateMutability": "nonpayable",
      "type": "function"
    }
  ],
  "bytecode": "0x608060405234801561001057600080fd5b50336000806101000a81548173ffffffffffffffffffffffffffffffffffffffff021916908373ffffffffffffffffffffffffffffffffffffffff16021790555060008054906101000a900473ffffffffffffffffffffffffffffffffffffffff1673ffffffffffffffffffffffffffffffffffffffff16600073ffffffffffffffffffffffffffffffffffffffff167f342827c97908e5e2f71151c08502a66d44b6f758e3ac2f1de95f02eb95f0a73560405160405180910390a3612d8e806100db6000396000f3fe6080604052600436106100555760003560e01c806332413f6a1461005a5780634a29114214610083578063618ae9ce146100c85780637f0b886a146100fc578063a0055c8014610125578063cababab614610141575b600080fd5b34801561006657600080fd5b50610081600480360381019061007c9190612324565b61016f565b005b34801561008f57600080fd5b506100aa60048036038101906100a5919061229b565b6109a4565b6040516100bf99989796959493929190612719565b60405180910390f35b3480156100d457600080fd5b506100dd610d42565b6040516100f39a99989796959493929190612831565b60405180910390f35b34801561010857600080fd5b50610123600480360381019061011e91906122c8565b6113f5565b005b61013f600480360381019061013a91906123af565b611765565b005b34801561014d57600080fd5b50610156611db9565b60405161016694939291906127d0565b60405180910390f35b60008054906101000a900473ffffffffffffffffffffffffffffffffffffffff1673ffffffffffffffffffffffffffffffffffffffff163373ffffffffffffffffffffffffffffffffffffffff16146101fd576040517f08c379a00000000000000000000000000000000000000000000000000000000081526004016101f490612933565b60405180910390fd5b6001600081548092919061021090612ba2565b919050555060008054906101000a900473ffffffffffffffffffffffffffffffffffffffff1660106000600154815260200190815260200160002060000160006101000a81548173ffffffffffffffffffffffffffffffffffffffff021916908373ffffffffffffffffffffffffffffffffffffffff1602179055508060106000600154815260200190815260200160002060010190805190602001906102b892919061201f565b506040518060400160405280600581526020017f41646d696e000000000000000000000000000000000000000000000000000000815250601060006001548152602001908152602001600020600201908051906020019061031a92919061201f565b5082601060006001548152602001908152602001600020600301819055506040518060400160405280600681526020017f6f66666963650000000000000000000000000000000000000000000000000000815250601060006001548152602001908152602001600020600401908051906020019061039992919061201f565b506040518060400160405280600881526020017f303237373737373700000000000000000000000000000000000000000000000081525060106000600154815260200190815260200160002060050190805190602001906103fb92919061201f565b5081601060006001548152602001908152602001600020600601908051906020019061042892919061201f565b506001601060006001548152602001908152602001600020600701819055506002600061045591906120a5565b6004600061046391906120c6565b6003600061047191906120a5565b6005600061047f91906120c6565b600f600061048d91906120e7565b6006600061049b91906120c6565b600760006104a991906120a5565b600860006104b791906120a5565b600960006104c591906120c6565b600a60006104d391906120a5565b600b60006104e191906120a5565b600c60006104ef91906120a5565b600d60006104fd91906120c6565b600e600061050b91906120a5565b6000600190505b600154811161099e5760016010600083815260200190815260200160002060070154141561064d576002601060008381526020019081526020016000206006019080600181540180825580915050600190039060005260206000200160009091909190915090805461058390612b3f565b61058e929190612108565b5060048190806001815401808255809150506001900390600052602060002001600090919091909150556003601060008381526020019081526020016000206001019080600181540180825580915050600190039060005260206000200160009091909190915090805461060190612b3f565b61060c929190612108565b506005601060008381526020019081526020016000206003015490806001815401808255809150506001900390600052602060002001600090919091909150555b600f6010600083815260200190815260200160002060000160009054906101000a900473ffffffffffffffffffffffffffffffffffffffff169080600181540180825580915050600190039060005260206000200160009091909190916101000a81548173ffffffffffffffffffffffffffffffffffffffff021916908373ffffffffffffffffffffffffffffffffffffffff16021790555060068190806001815401808255809150506001900390600052602060002001600090919091909150556007601060008381526020019081526020016000206001019080600181540180825580915050600190039060005260206000200160009091909190915090805461075890612b3f565b610763929190612108565b50600860106000838152602001908152602001600020600201908060018154018082558091505060019003906000526020600020016000909190919091509080546107ad90612b3f565b6107b8929190612108565b50600960106000838152602001908152602001600020600301549080600181540180825580915050600190039060005260206000200160009091909190915055600a601060008381526020019081526020016000206004019080600181540180825580915050600190039060005260206000200160009091909190915090805461084190612b3f565b61084c929190612108565b50600b601060008381526020019081526020016000206005019080600181540180825580915050600190039060005260206000200160009091909190915090805461089690612b3f565b6108a1929190612108565b50600c60106000838152602001908152602001600020600601908060018154018082558091505060019003906000526020600020016000909190919091509080546108eb90612b3f565b6108f6929190612108565b50600d60106000838152602001908152602001600020600701549080600181540180825580915050600190039060005260206000200160009091909190915055600e601060008381526020019081526020016000206008019080600181540180825580915050600190039060005260206000200160009091909190915090805461097f90612b3f565b61098a929190612108565b50808061099690612ba2565b915050610512565b50505050565b60106020528060005260406000206000915090508060000160009054906101000a900473ffffffffffffffffffffffffffffffffffffffff16908060010180546109ed90612b3f565b80601f0160208091040260200160405190810160405280929190818152602001828054610a1990612b3f565b8015610a665780601f10610a3b57610100808354040283529160200191610a66565b820191906000526020600020905b815481529060010190602001808311610a4957829003601f168201915b505050505090806002018054610a7b90612b3f565b80601f0160208091040260200160405190810160405280929190818152602001828054610aa790612b3f565b8015610af45780601f10610ac957610100808354040283529160200191610af4565b820191906000526020600020905b815481529060010190602001808311610ad757829003601f168201915b505050505090806003015490806004018054610b0f90612b3f565b80601f0160208091040260200160405190810160405280929190818152602001828054610b3b90612b3f565b8015610b885780601f10610b5d57610100808354040283529160200191610b88565b820191906000526020600020905b815481529060010190602001808311610b6b57829003601f168201915b505050505090806005018054610b9d90612b3f565b80601f0160208091040260200160405190810160405280929190818152602001828054610bc990612b3f565b8015610c165780601f10610beb57610100808354040283529160200191610c16565b820191906000526020600020905b815481529060010190602001808311610bf957829003601f168201915b505050505090806006018054610c2b90612b3f565b80601f0160208091040260200160405190810160405280929190818152602001828054610c5790612b3f565b8015610ca45780601f10610c7957610100808354040283529160200191610ca4565b820191906000526020600020905b815481529060010190602001808311610c8757829003601f168201915b505050505090806007015490806008018054610cbf90612b3f565b80601f0160208091040260200160405190810160405280929190818152602001828054610ceb90612b3f565b8015610d385780601f10610d0d57610100808354040283529160200191610d38565b820191906000526020600020905b815481529060010190602001808311610d1b57829003601f168201915b5050505050905089565b6060806060806060806060806060806006600760086009600a600b600c600d600e600f89805480602002602001604051908101604052809291908181526020018280548015610db057602002820191906000526020600020905b815481526020019060010190808311610d9c575b5050505050995088805480602002602001604051908101604052809291908181526020016000905b82821015610e84578382906000526020600020018054610df790612b3f565b80601f0160208091040260200160405190810160405280929190818152602001828054610e2390612b3f565b8015610e705780601f10610e4557610100808354040283529160200191610e70565b820191906000526020600020905b815481529060010190602001808311610e5357829003601f168201915b505050505081526020019060010190610dd8565b50505050985087805480602002602001604051908101604052809291908181526020016000905b82821015610f57578382906000526020600020018054610eca90612b3f565b80601f0160208091040260200160405190810160405280929190818152602001828054610ef690612b3f565b8015610f435780601f10610f1857610100808354040283529160200191610f43565b820191906000526020600020905b815481529060010190602001808311610f2657829003601f168201915b505050505081526020019060010190610eab565b50505050975086805480602002602001604051908101604052809291908181526020018280548015610fa857602002820191906000526020600020905b815481526020019060010190808311610f94575b5050505050965085805480602002602001604051908101604052809291908181526020016000905b8282101561107c578382906000526020600020018054610fef90612b3f565b80601f016020809104026020016040519081016040528092919081815260200182805461101b90612b3f565b80156110685780601f1061103d57610100808354040283529160200191611068565b820191906000526020600020905b81548152906001019060200180831161104b57829003601f168201915b505050505081526020019060010190610fd0565b50505050955084805480602002602001604051908101604052809291908181526020016000905b8282101561114f5783829060005260206000200180546110c290612b3f565b80601f01602080910402602001604051908101604052809291908181526020018280546110ee90612b3f565b801561113b5780601f106111105761010080835404028352916020019161113b565b820191906000526020600020905b81548152906001019060200180831161111e57829003601f168201915b5050505050815260200190600101906110a3565b50505050945083805480602002602001604051908101604052809291908181526020016000905b8282101561122257838290600052602060002001805461119590612b3f565b80601f01602080910402602001604051908101604052809291908181526020018280546111c190612b3f565b801561120e5780601f106111e35761010080835404028352916020019161120e565b820191906000526020600020905b8154815290600101906020018083116111f157829003601f168201915b505050505081526020019060010190611176565b5050505093508280548060200260200160405190810160405280929190818152602001828054801561127357602002820191906000526020600020905b81548152602001906001019080831161125f575b5050505050925081805480602002602001604051908101604052809291908181526020016000905b828210156113475783829060005260206000200180546112ba90612b3f565b80601f01602080910402602001604051908101604052809291908181526020018280546112e690612b3f565b80156113335780601f1061130857610100808354040283529160200191611333565b820191906000526020600020905b81548152906001019060200180831161131657829003601f168201915b50505050508152602001906001019061129b565b505050509150808054806020026020016040519081016040528092919081815260200182805480156113ce57602002820191906000526020600020905b8160009054906101000a900473ffffffffffffffffffffffffffffffffffffffff1673ffffffffffffffffffffffffffffffffffffffff1681526020019060010190808311611384575b50505050509050995099509950995099509950995099509950995090919293949596979899565b60008054906101000a900473ffffffffffffffffffffffffffffffffffffffff1673ffffffffffffffffffffffffffffffffffffffff163373ffffffffffffffffffffffffffffffffffffffff1614611483576040517f08c379a000000000000000000000000000000000000000000000000000000000815260040161147a90612933565b60405180910390fd5b60026010600084815260200190815260200160002060070154146114dc576040517f08c379a00000000000000000000000000000000000000000000000000000000081526004016114d390612953565b60405180910390fd5b600360106000848152602001908152602001600020600701819055508060106000848152602001908152602001600020600801908051906020019061152292919061201f565b506002600061153191906120a5565b6004600061153f91906120c6565b6003600061154d91906120a5565b6005600061155b91906120c6565b600d600061156991906120c6565b600e600061157791906120a5565b6000600190505b6001548111611760576001601060008381526020019081526020016000206007015414156116b957600260106000838152602001908152602001600020600601908060018154018082558091505060019003906000526020600020016000909190919091509080546115ef90612b3f565b6115fa929190612108565b5060048190806001815401808255809150506001900390600052602060002001600090919091909150556003601060008381526020019081526020016000206001019080600181540180825580915050600190039060005260206000200160009091909190915090805461166d90612b3f565b611678929190612108565b506005601060008381526020019081526020016000206003015490806001815401808255809150506001900390600052602060002001600090919091909150555b600d60106000838152602001908152602001600020600701549080600181540180825580915050600190039060005260206000200160009091909190915055600e601060008381526020019081526020016000206008019080600181540180825580915050600190039060005260206000200160009091909190915090805461174190612b3f565b61174c929190612108565b50808061175890612ba2565b91505061157e565b505050565b601060008581526020019081526020016000206003015434146117bd576040517f08c379a00000000000000000000000000000000000000000000000000000000081526004016117b490612913565b60405180910390fd5b60008054906101000a900473ffffffffffffffffffffffffffffffffffffffff1673ffffffffffffffffffffffffffffffffffffffff163373ffffffffffffffffffffffffffffffffffffffff16141561184c576040517f08c379a000000000000000000000000000000000000000000000000000000000815260040161184390612973565b60405180910390fd5b60008054906101000a900473ffffffffffffffffffffffffffffffffffffffff1673ffffffffffffffffffffffffffffffffffffffff166108fc349081150290604051600060405180830381858888f193505050501580156118b2573d6000803e3d6000fd5b50336010600086815260200190815260200160002060000160006101000a81548173ffffffffffffffffffffffffffffffffffffffff021916908373ffffffffffffffffffffffffffffffffffffffff1602179055508260106000868152602001908152602001600020600201908051906020019061193292919061201f565b508160106000868152602001908152602001600020600401908051906020019061195d92919061201f565b508060106000868152602001908152602001600020600501908051906020019061198892919061201f565b5060026010600086815260200190815260200160002060070181905550600260006119b391906120a5565b600460006119c191906120c6565b600360006119cf91906120a5565b600560006119dd91906120c6565b600f60006119eb91906120e7565b600860006119f991906120a5565b600a6000611a0791906120a5565b600b6000611a1591906120a5565b600d6000611a2391906120c6565b600e6000611a3191906120a5565b6000600190505b6001548111611db257600160106000838152602001908152602001600020600701541415611b735760026010600083815260200190815260200160002060060190806001815401808255809150506001900390600052602060002001600090919091909150908054611aa990612b3f565b611ab4929190612108565b50600481908060018154018082558091505060019003906000526020600020016000909190919091505560036010600083815260200190815260200160002060010190806001815401808255809150506001900390600052602060002001600090919091909150908054611b2790612b3f565b611b32929190612108565b506005601060008381526020019081526020016000206003015490806001815401808255809150506001900390600052602060002001600090919091909150555b600f6010600083815260200190815260200160002060000160009054906101000a900473ffffffffffffffffffffffffffffffffffffffff169080600181540180825580915050600190039060005260206000200160009091909190916101000a81548173ffffffffffffffffffffffffffffffffffffffff021916908373ffffffffffffffffffffffffffffffffffffffff16021790555060086010600083815260200190815260200160002060020190806001815401808255809150506001900390600052602060002001600090919091909150908054611c5590612b3f565b611c60929190612108565b50600a6010600083815260200190815260200160002060040190806001815401808255809150506001900390600052602060002001600090919091909150908054611caa90612b3f565b611cb5929190612108565b50600b6010600083815260200190815260200160002060050190806001815401808255809150506001900390600052602060002001600090919091909150908054611cff90612b3f565b611d0a929190612108565b50600d60106000838152602001908152602001600020600701549080600181540180825580915050600190039060005260206000200160009091909190915055600e6010600083815260200190815260200160002060080190806001815401808255809150506001900390600052602060002001600090919091909150908054611d9390612b3f565b611d9e929190612108565b508080611daa90612ba2565b915050611a38565b5050505050565b606080606080600260036004600583805480602002602001604051908101604052809291908181526020016000905b82821015611e94578382906000526020600020018054611e0790612b3f565b80601f0160208091040260200160405190810160405280929190818152602001828054611e3390612b3f565b8015611e805780601f10611e5557610100808354040283529160200191611e80565b820191906000526020600020905b815481529060010190602001808311611e6357829003601f168201915b505050505081526020019060010190611de8565b50505050935082805480602002602001604051908101604052809291908181526020016000905b82821015611f67578382906000526020600020018054611eda90612b3f565b80601f0160208091040260200160405190810160405280929190818152602001828054611f0690612b3f565b8015611f535780601f10611f2857610100808354040283529160200191611f53565b820191906000526020600020905b815481529060010190602001808311611f3657829003601f168201915b505050505081526020019060010190611ebb565b50505050925081805480602002602001604051908101604052809291908181526020018280548015611fb857602002820191906000526020600020905b815481526020019060010190808311611fa4575b505050505091508080548060200260200160405190810160405280929190818152602001828054801561200a57602002820191906000526020600020905b815481526020019060010190808311611ff6575b50505050509050935093509350935090919293565b82805461202b90612b3f565b90600052602060002090601f01602090048101928261204d5760008555612094565b82601f1061206657805160ff1916838001178555612094565b82800160010185558215612094579182015b82811115612093578251825591602001919060010190612078565b5b5090506120a19190612195565b5090565b50805460008255906000526020600020908101906120c391906121b2565b50565b50805460008255906000526020600020908101906120e49190612195565b50565b50805460008255906000526020600020908101906121059190612195565b50565b82805461211490612b3f565b90600052602060002090601f0160209004810192826121365760008555612184565b82601f106121475780548555612184565b8280016001018555821561218457600052602060002091601f016020900482015b82811115612183578254825591600101919060010190612168565b5b5090506121919190612195565b5090565b5b808211156121ae576000816000905550600101612196565b5090565b5b808211156121d257600081816121c991906121d6565b506001016121b3565b5090565b5080546121e290612b3f565b6000825580601f106121f45750612213565b601f0160209004906000526020600020908101906122129190612195565b5b50565b6000612229612224846129b8565b612993565b90508281526020810184848401111561224557612244612c7d565b5b612250848285612afd565b509392505050565b600082601f83011261226d5761226c612c78565b5b813561227d848260208601612216565b91505092915050565b60008135905061229581612d41565b92915050565b6000602082840312156122b1576122b0612c87565b5b60006122bf84828501612286565b91505092915050565b600080604083850312156122df576122de612c87565b5b60006122ed85828601612286565b925050602083013567ffffffffffffffff81111561230e5761230d612c82565b5b61231a85828601612258565b9150509250929050565b60008060006060848603121561233d5761233c612c87565b5b600061234b86828701612286565b935050602084013567ffffffffffffffff81111561236c5761236b612c82565b5b61237886828701612258565b925050604084013567ffffffffffffffff81111561239957612398612c82565b5b6123a586828701612258565b9150509250925092565b600080600080608085870312156123c9576123c8612c87565b5b60006123d787828801612286565b945050602085013567ffffffffffffffff8111156123f8576123f7612c82565b5b61240487828801612258565b935050604085013567ffffffffffffffff81111561242557612424612c82565b5b61243187828801612258565b925050606085013567ffffffffffffffff81111561245257612451612c82565b5b61245e87828801612258565b91505092959194509250565b600061247683836124ae565b60208301905092915050565b600061248e83836125fd565b905092915050565b60006124a283836126fb565b60208301905092915050565b6124b781612ac1565b82525050565b6124c681612ac1565b82525050565b60006124d782612a19565b6124e18185612a6c565b93506124ec836129e9565b8060005b8381101561251d578151612504888261246a565b975061250f83612a45565b9250506001810190506124f0565b5085935050505092915050565b600061253582612a24565b61253f8185612a7d565b935083602082028501612551856129f9565b8060005b8581101561258d578484038952815161256e8582612482565b945061257983612a52565b925060208a01995050600181019050612555565b50829750879550505050505092915050565b60006125aa82612a2f565b6125b48185612a8e565b93506125bf83612a09565b8060005b838110156125f05781516125d78882612496565b97506125e283612a5f565b9250506001810190506125c3565b5085935050505092915050565b600061260882612a3a565b6126128185612a9f565b9350612622818560208601612b0c565b61262b81612c8c565b840191505092915050565b600061264182612a3a565b61264b8185612ab0565b935061265b818560208601612b0c565b61266481612c8c565b840191505092915050565b600061267c601083612ab0565b915061268782612c9d565b602082019050919050565b600061269f601183612ab0565b91506126aa82612cc6565b602082019050919050565b60006126c2601483612ab0565b91506126cd82612cef565b602082019050919050565b60006126e5600d83612ab0565b91506126f082612d18565b602082019050919050565b61270481612af3565b82525050565b61271381612af3565b82525050565b60006101208201905061272f600083018c6124bd565b8181036020830152612741818b612636565b90508181036040830152612755818a612636565b9050612764606083018961270a565b81810360808301526127768188612636565b905081810360a083015261278a8187612636565b905081810360c083015261279e8186612636565b90506127ad60e083018561270a565b8181036101008301526127c08184612636565b90509a9950505050505050505050565b600060808201905081810360008301526127ea818761252a565b905081810360208301526127fe818661252a565b90508181036040830152612812818561259f565b90508181036060830152612826818461259f565b905095945050505050565b600061014082019050818103600083015261284c818d61259f565b90508181036020830152612860818c61252a565b90508181036040830152612874818b61252a565b90508181036060830152612888818a61259f565b9050818103608083015261289c818961252a565b905081810360a08301526128b0818861252a565b905081810360c08301526128c4818761252a565b905081810360e08301526128d8818661259f565b90508181036101008301526128ed818561252a565b905081810361012083015261290281846124cc565b90509b9a5050505050505050505050565b6000602082019050818103600083015261292c8161266f565b9050919050565b6000602082019050818103600083015261294c81612692565b9050919050565b6000602082019050818103600083015261296c816126b5565b9050919050565b6000602082019050818103600083015261298c816126d8565b9050919050565b600061299d6129ae565b90506129a98282612b71565b919050565b6000604051905090565b600067ffffffffffffffff8211156129d3576129d2612c49565b5b6129dc82612c8c565b9050602081019050919050565b6000819050602082019050919050565b6000819050602082019050919050565b6000819050602082019050919050565b600081519050919050565b600081519050919050565b600081519050919050565b600081519050919050565b6000602082019050919050565b6000602082019050919050565b6000602082019050919050565b600082825260208201905092915050565b600082825260208201905092915050565b600082825260208201905092915050565b600082825260208201905092915050565b600082825260208201905092915050565b6000612acc82612ad3565b9050919050565b600073ffffffffffffffffffffffffffffffffffffffff82169050919050565b6000819050919050565b82818337600083830152505050565b60005b83811015612b2a578082015181840152602081019050612b0f565b83811115612b39576000848401525b50505050565b60006002820490506001821680612b5757607f821691505b60208210811415612b6b57612b6a612c1a565b5b50919050565b612b7a82612c8c565b810181811067ffffffffffffffff82111715612b9957612b98612c49565b5b80604052505050565b6000612bad82612af3565b91507fffffffffffffffffffffffffffffffffffffffffffffffffffffffffffffffff821415612be057612bdf612beb565b5b600182019050919050565b7f4e487b7100000000000000000000000000000000000000000000000000000000600052601160045260246000fd5b7f4e487b7100000000000000000000000000000000000000000000000000000000600052602260045260246000fd5b7f4e487b7100000000000000000000000000000000000000000000000000000000600052604160045260246000fd5b600080fd5b600080fd5b600080fd5b600080fd5b6000601f19601f8301169050919050565b7f4e6f7420656e6f75676820707269636500000000000000000000000000000000600082015250565b7f596f7520617265206e6f742061646d696e000000000000000000000000000000600082015250565b7f546869732070696374757265206e6f7420627579000000000000000000000000600082015250565b7f596f75206172652061646d696e00000000000000000000000000000000000000600082015250565b612d4a81612af3565b8114612d5557600080fd5b5056fea264697066735822122050e485aba2064249802c27983b7ee6938e3adfa1177e9a359ccfb5c42ad5273f64736f6c63430008070033",
  "linkReferences": {},
  "deployedLinkReferences": {}
}