{
  "_format": "hh-sol-artifact-1",
  "contractName": "Shop",
  "sourceName": "contracts/shop.sol",
  "abi": [
    {
      "inputs": [],
      "stateMutability": "nonpayable",
      "type": "constructor"
    },
    {
      "anonymous": false,
      "inputs": [
        {
          "indexed": true,
          "internalType": "address",
          "name": "oldOwner",
          "type": "address"
        },
        {
          "indexed": true,
          "internalType": "address",
          "name": "newOwner",
          "type": "address"
        }
      ],
      "name": "OwnerSet",
      "type": "event"
    },
    {
      "inputs": [
        {
          "internalType": "uint256",
          "name": "id",
          "type": "uint256"
        },
        {
          "internalType": "string",
          "name": "name",
          "type": "string"
        },
        {
          "internalType": "string",
          "name": "deliverAddress",
          "type": "string"
        },
        {
          "internalType": "string",
          "name": "tel",
          "type": "string"
        }
      ],
      "name": "buyPicture",
      "outputs": [],
      "stateMutability": "payable",
      "type": "function"
    },
    {
      "inputs": [
        {
          "internalType": "uint256",
          "name": "price",
          "type": "uint256"
        },
        {
          "internalType": "string",
          "name": "path",
          "type": "string"
        },
        {
          "internalType": "string",
          "name": "picName",
          "type": "string"
        }
      ],
      "name": "createSellPic",
      "outputs": [],
      "stateMutability": "nonpayable",
      "type": "function"
    },
    {
      "inputs": [],
      "name": "getPic",
      "outputs": [
        {
          "internalType": "string[]",
          "name": "",
          "type": "string[]"
        },
        {
          "internalType": "string[]",
          "name": "",
          "type": "string[]"
        },
        {
          "internalType": "uint256[]",
          "name": "",
          "type": "uint256[]"
        },
        {
          "internalType": "uint256[]",
          "name": "",
          "type": "uint256[]"
        }
      ],
      "stateMutability": "view",
      "type": "function"
    },
    {
      "inputs": [],
      "name": "getPicTable",
      "outputs": [
        {
          "internalType": "uint256[]",
          "name": "",
          "type": "uint256[]"
        },
        {
          "internalType": "string[]",
          "name": "",
          "type": "string[]"
        },
        {
          "internalType": "string[]",
          "name": "",
          "type": "string[]"
        },
        {
          "internalType": "uint256[]",
          "name": "",
          "type": "uint256[]"
        },
        {
          "internalType": "string[]",
          "name": "",
          "type": "string[]"
        },
        {
          "internalType": "string[]",
          "name": "",
          "type": "string[]"
        },
        {
          "internalType": "string[]",
          "name": "",
          "type": "string[]"
        },
        {
          "internalType": "uint256[]",
          "name": "",
          "type": "uint256[]"
        },
        {
          "internalType": "string[]",
          "name": "",
          "type": "string[]"
        },
        {
          "internalType": "address[]",
          "name": "",
          "type": "address[]"
        }
      ],
      "stateMutability": "view",
      "type": "function"
    },
    {
      "inputs": [
        {
          "internalType": "uint256",
          "name": "",
          "type": "uint256"
        }
      ],
      "name": "pictures",
      "outputs": [
        {
          "internalType": "address",
          "name": "addressWallet",
          "type": "address"
        },
        {
          "internalType": "string",
          "name": "picName",
          "type": "string"
        },
        {
          "internalType": "string",
          "name": "name",
          "type": "string"
        },
        {
          "internalType": "uint256",
          "name": "price",
          "type": "uint256"
        },
        {
          "internalType": "string",
          "name": "deliverAddress",
          "type": "string"
        },
        {
          "internalType": "string",
          "name": "tel",
          "type": "string"
        },
        {
          "internalType": "string",
          "name": "path",
          "type": "string"
        },
        {
          "internalType": "uint256",
          "name": "status",
          "type": "uint256"
        },
        {
          "internalType": "string",
          "name": "trackingNumber",
          "type": "string"
        }
      ],
      "stateMutability": "view",
      "type": "function"
    },
    {
      "inputs": [
        {
          "internalType": "uint256",
          "name": "id",
          "type": "uint256"
        },
        {
          "internalType": "string",
          "name": "tracking",
          "type": "string"
        }
      ],
      "name": "sendPicture",
      "outputs": [],
      "stateMutability": "nonpayable",
      "type": "function"
    }
  ],
  "bytecode": "0x608060405234801561001057600080fd5b50336000806101000a81548173ffffffffffffffffffffffffffffffffffffffff021916908373ffffffffffffffffffffffffffffffffffffffff16021790555060008054906101000a900473ffffffffffffffffffffffffffffffffffffffff1673ffffffffffffffffffffffffffffffffffffffff16600073ffffffffffffffffffffffffffffffffffffffff167f342827c97908e5e2f71151c08502a66d44b6f758e3ac2f1de95f02eb95f0a73560405160405180910390a3612e49806100db6000396000f3fe6080604052600436106100555760003560e01c806332413f6a1461005a5780634a29114214610083578063618ae9ce146100c85780637f0b886a146100fc578063a0055c8014610125578063cababab614610141575b600080fd5b34801561006657600080fd5b50610081600480360381019061007c9190612373565b61016f565b005b34801561008f57600080fd5b506100aa60048036038101906100a591906122ea565b6109a4565b6040516100bf9998979695949392919061278b565b60405180910390f35b3480156100d457600080fd5b506100dd610d42565b6040516100f39a999897969594939291906128a3565b60405180910390f35b34801561010857600080fd5b50610123600480360381019061011e9190612317565b6113f5565b005b61013f600480360381019061013a91906123fe565b611765565b005b34801561014d57600080fd5b50610156611e08565b6040516101669493929190612842565b60405180910390f35b60008054906101000a900473ffffffffffffffffffffffffffffffffffffffff1673ffffffffffffffffffffffffffffffffffffffff163373ffffffffffffffffffffffffffffffffffffffff16146101fd576040517f08c379a00000000000000000000000000000000000000000000000000000000081526004016101f4906129a5565b60405180910390fd5b6001600081548092919061021090612c34565b919050555060008054906101000a900473ffffffffffffffffffffffffffffffffffffffff1660106000600154815260200190815260200160002060000160006101000a81548173ffffffffffffffffffffffffffffffffffffffff021916908373ffffffffffffffffffffffffffffffffffffffff1602179055508060106000600154815260200190815260200160002060010190805190602001906102b892919061206e565b506040518060400160405280600581526020017f41646d696e000000000000000000000000000000000000000000000000000000815250601060006001548152602001908152602001600020600201908051906020019061031a92919061206e565b5082601060006001548152602001908152602001600020600301819055506040518060400160405280600681526020017f6f66666963650000000000000000000000000000000000000000000000000000815250601060006001548152602001908152602001600020600401908051906020019061039992919061206e565b506040518060400160405280600881526020017f303237373737373700000000000000000000000000000000000000000000000081525060106000600154815260200190815260200160002060050190805190602001906103fb92919061206e565b5081601060006001548152602001908152602001600020600601908051906020019061042892919061206e565b506001601060006001548152602001908152602001600020600701819055506002600061045591906120f4565b600460006104639190612115565b6003600061047191906120f4565b6005600061047f9190612115565b600f600061048d9190612136565b6006600061049b9190612115565b600760006104a991906120f4565b600860006104b791906120f4565b600960006104c59190612115565b600a60006104d391906120f4565b600b60006104e191906120f4565b600c60006104ef91906120f4565b600d60006104fd9190612115565b600e600061050b91906120f4565b6000600190505b600154811161099e5760016010600083815260200190815260200160002060070154141561064d576002601060008381526020019081526020016000206006019080600181540180825580915050600190039060005260206000200160009091909190915090805461058390612bd1565b61058e929190612157565b5060048190806001815401808255809150506001900390600052602060002001600090919091909150556003601060008381526020019081526020016000206001019080600181540180825580915050600190039060005260206000200160009091909190915090805461060190612bd1565b61060c929190612157565b506005601060008381526020019081526020016000206003015490806001815401808255809150506001900390600052602060002001600090919091909150555b600f6010600083815260200190815260200160002060000160009054906101000a900473ffffffffffffffffffffffffffffffffffffffff169080600181540180825580915050600190039060005260206000200160009091909190916101000a81548173ffffffffffffffffffffffffffffffffffffffff021916908373ffffffffffffffffffffffffffffffffffffffff16021790555060068190806001815401808255809150506001900390600052602060002001600090919091909150556007601060008381526020019081526020016000206001019080600181540180825580915050600190039060005260206000200160009091909190915090805461075890612bd1565b610763929190612157565b50600860106000838152602001908152602001600020600201908060018154018082558091505060019003906000526020600020016000909190919091509080546107ad90612bd1565b6107b8929190612157565b50600960106000838152602001908152602001600020600301549080600181540180825580915050600190039060005260206000200160009091909190915055600a601060008381526020019081526020016000206004019080600181540180825580915050600190039060005260206000200160009091909190915090805461084190612bd1565b61084c929190612157565b50600b601060008381526020019081526020016000206005019080600181540180825580915050600190039060005260206000200160009091909190915090805461089690612bd1565b6108a1929190612157565b50600c60106000838152602001908152602001600020600601908060018154018082558091505060019003906000526020600020016000909190919091509080546108eb90612bd1565b6108f6929190612157565b50600d60106000838152602001908152602001600020600701549080600181540180825580915050600190039060005260206000200160009091909190915055600e601060008381526020019081526020016000206008019080600181540180825580915050600190039060005260206000200160009091909190915090805461097f90612bd1565b61098a929190612157565b50808061099690612c34565b915050610512565b50505050565b60106020528060005260406000206000915090508060000160009054906101000a900473ffffffffffffffffffffffffffffffffffffffff16908060010180546109ed90612bd1565b80601f0160208091040260200160405190810160405280929190818152602001828054610a1990612bd1565b8015610a665780601f10610a3b57610100808354040283529160200191610a66565b820191906000526020600020905b815481529060010190602001808311610a4957829003601f168201915b505050505090806002018054610a7b90612bd1565b80601f0160208091040260200160405190810160405280929190818152602001828054610aa790612bd1565b8015610af45780601f10610ac957610100808354040283529160200191610af4565b820191906000526020600020905b815481529060010190602001808311610ad757829003601f168201915b505050505090806003015490806004018054610b0f90612bd1565b80601f0160208091040260200160405190810160405280929190818152602001828054610b3b90612bd1565b8015610b885780601f10610b5d57610100808354040283529160200191610b88565b820191906000526020600020905b815481529060010190602001808311610b6b57829003601f168201915b505050505090806005018054610b9d90612bd1565b80601f0160208091040260200160405190810160405280929190818152602001828054610bc990612bd1565b8015610c165780601f10610beb57610100808354040283529160200191610c16565b820191906000526020600020905b815481529060010190602001808311610bf957829003601f168201915b505050505090806006018054610c2b90612bd1565b80601f0160208091040260200160405190810160405280929190818152602001828054610c5790612bd1565b8015610ca45780601f10610c7957610100808354040283529160200191610ca4565b820191906000526020600020905b815481529060010190602001808311610c8757829003601f168201915b505050505090806007015490806008018054610cbf90612bd1565b80601f0160208091040260200160405190810160405280929190818152602001828054610ceb90612bd1565b8015610d385780601f10610d0d57610100808354040283529160200191610d38565b820191906000526020600020905b815481529060010190602001808311610d1b57829003601f168201915b5050505050905089565b6060806060806060806060806060806006600760086009600a600b600c600d600e600f89805480602002602001604051908101604052809291908181526020018280548015610db057602002820191906000526020600020905b815481526020019060010190808311610d9c575b5050505050995088805480602002602001604051908101604052809291908181526020016000905b82821015610e84578382906000526020600020018054610df790612bd1565b80601f0160208091040260200160405190810160405280929190818152602001828054610e2390612bd1565b8015610e705780601f10610e4557610100808354040283529160200191610e70565b820191906000526020600020905b815481529060010190602001808311610e5357829003601f168201915b505050505081526020019060010190610dd8565b50505050985087805480602002602001604051908101604052809291908181526020016000905b82821015610f57578382906000526020600020018054610eca90612bd1565b80601f0160208091040260200160405190810160405280929190818152602001828054610ef690612bd1565b8015610f435780601f10610f1857610100808354040283529160200191610f43565b820191906000526020600020905b815481529060010190602001808311610f2657829003601f168201915b505050505081526020019060010190610eab565b50505050975086805480602002602001604051908101604052809291908181526020018280548015610fa857602002820191906000526020600020905b815481526020019060010190808311610f94575b5050505050965085805480602002602001604051908101604052809291908181526020016000905b8282101561107c578382906000526020600020018054610fef90612bd1565b80601f016020809104026020016040519081016040528092919081815260200182805461101b90612bd1565b80156110685780601f1061103d57610100808354040283529160200191611068565b820191906000526020600020905b81548152906001019060200180831161104b57829003601f168201915b505050505081526020019060010190610fd0565b50505050955084805480602002602001604051908101604052809291908181526020016000905b8282101561114f5783829060005260206000200180546110c290612bd1565b80601f01602080910402602001604051908101604052809291908181526020018280546110ee90612bd1565b801561113b5780601f106111105761010080835404028352916020019161113b565b820191906000526020600020905b81548152906001019060200180831161111e57829003601f168201915b5050505050815260200190600101906110a3565b50505050945083805480602002602001604051908101604052809291908181526020016000905b8282101561122257838290600052602060002001805461119590612bd1565b80601f01602080910402602001604051908101604052809291908181526020018280546111c190612bd1565b801561120e5780601f106111e35761010080835404028352916020019161120e565b820191906000526020600020905b8154815290600101906020018083116111f157829003601f168201915b505050505081526020019060010190611176565b5050505093508280548060200260200160405190810160405280929190818152602001828054801561127357602002820191906000526020600020905b81548152602001906001019080831161125f575b5050505050925081805480602002602001604051908101604052809291908181526020016000905b828210156113475783829060005260206000200180546112ba90612bd1565b80601f01602080910402602001604051908101604052809291908181526020018280546112e690612bd1565b80156113335780601f1061130857610100808354040283529160200191611333565b820191906000526020600020905b81548152906001019060200180831161131657829003601f168201915b50505050508152602001906001019061129b565b505050509150808054806020026020016040519081016040528092919081815260200182805480156113ce57602002820191906000526020600020905b8160009054906101000a900473ffffffffffffffffffffffffffffffffffffffff1673ffffffffffffffffffffffffffffffffffffffff1681526020019060010190808311611384575b50505050509050995099509950995099509950995099509950995090919293949596979899565b60008054906101000a900473ffffffffffffffffffffffffffffffffffffffff1673ffffffffffffffffffffffffffffffffffffffff163373ffffffffffffffffffffffffffffffffffffffff1614611483576040517f08c379a000000000000000000000000000000000000000000000000000000000815260040161147a906129a5565b60405180910390fd5b60026010600084815260200190815260200160002060070154146114dc576040517f08c379a00000000000000000000000000000000000000000000000000000000081526004016114d3906129c5565b60405180910390fd5b600360106000848152602001908152602001600020600701819055508060106000848152602001908152602001600020600801908051906020019061152292919061206e565b506002600061153191906120f4565b6004600061153f9190612115565b6003600061154d91906120f4565b6005600061155b9190612115565b600d60006115699190612115565b600e600061157791906120f4565b6000600190505b6001548111611760576001601060008381526020019081526020016000206007015414156116b957600260106000838152602001908152602001600020600601908060018154018082558091505060019003906000526020600020016000909190919091509080546115ef90612bd1565b6115fa929190612157565b5060048190806001815401808255809150506001900390600052602060002001600090919091909150556003601060008381526020019081526020016000206001019080600181540180825580915050600190039060005260206000200160009091909190915090805461166d90612bd1565b611678929190612157565b506005601060008381526020019081526020016000206003015490806001815401808255809150506001900390600052602060002001600090919091909150555b600d60106000838152602001908152602001600020600701549080600181540180825580915050600190039060005260206000200160009091909190915055600e601060008381526020019081526020016000206008019080600181540180825580915050600190039060005260206000200160009091909190915090805461174190612bd1565b61174c929190612157565b50808061175890612c34565b91505061157e565b505050565b601060008581526020019081526020016000206003015434146117bd576040517f08c379a00000000000000000000000000000000000000000000000000000000081526004016117b490612985565b60405180910390fd5b60008054906101000a900473ffffffffffffffffffffffffffffffffffffffff1673ffffffffffffffffffffffffffffffffffffffff163373ffffffffffffffffffffffffffffffffffffffff16141561184c576040517f08c379a000000000000000000000000000000000000000000000000000000000815260040161184390612a05565b60405180910390fd5b60006010600086815260200190815260200160002060000160009054906101000a900473ffffffffffffffffffffffffffffffffffffffff16905060008173ffffffffffffffffffffffffffffffffffffffff166108fc349081150290604051600060405180830381858888f19350505050905080611900576040517f08c379a00000000000000000000000000000000000000000000000000000000081526004016118f7906129e5565b60405180910390fd5b336010600088815260200190815260200160002060000160006101000a81548173ffffffffffffffffffffffffffffffffffffffff021916908373ffffffffffffffffffffffffffffffffffffffff1602179055508460106000888152602001908152602001600020600201908051906020019061197f92919061206e565b50836010600088815260200190815260200160002060040190805190602001906119aa92919061206e565b50826010600088815260200190815260200160002060050190805190602001906119d592919061206e565b506002601060008881526020019081526020016000206007018190555060026000611a0091906120f4565b60046000611a0e9190612115565b60036000611a1c91906120f4565b60056000611a2a9190612115565b600f6000611a389190612136565b60086000611a4691906120f4565b600a6000611a5491906120f4565b600b6000611a6291906120f4565b600d6000611a709190612115565b600e6000611a7e91906120f4565b6000600190505b6001548111611dff57600160106000838152602001908152602001600020600701541415611bc05760026010600083815260200190815260200160002060060190806001815401808255809150506001900390600052602060002001600090919091909150908054611af690612bd1565b611b01929190612157565b50600481908060018154018082558091505060019003906000526020600020016000909190919091505560036010600083815260200190815260200160002060010190806001815401808255809150506001900390600052602060002001600090919091909150908054611b7490612bd1565b611b7f929190612157565b506005601060008381526020019081526020016000206003015490806001815401808255809150506001900390600052602060002001600090919091909150555b600f6010600083815260200190815260200160002060000160009054906101000a900473ffffffffffffffffffffffffffffffffffffffff169080600181540180825580915050600190039060005260206000200160009091909190916101000a81548173ffffffffffffffffffffffffffffffffffffffff021916908373ffffffffffffffffffffffffffffffffffffffff16021790555060086010600083815260200190815260200160002060020190806001815401808255809150506001900390600052602060002001600090919091909150908054611ca290612bd1565b611cad929190612157565b50600a6010600083815260200190815260200160002060040190806001815401808255809150506001900390600052602060002001600090919091909150908054611cf790612bd1565b611d02929190612157565b50600b6010600083815260200190815260200160002060050190806001815401808255809150506001900390600052602060002001600090919091909150908054611d4c90612bd1565b611d57929190612157565b50600d60106000838152602001908152602001600020600701549080600181540180825580915050600190039060005260206000200160009091909190915055600e6010600083815260200190815260200160002060080190806001815401808255809150506001900390600052602060002001600090919091909150908054611de090612bd1565b611deb929190612157565b508080611df790612c34565b915050611a85565b50505050505050565b606080606080600260036004600583805480602002602001604051908101604052809291908181526020016000905b82821015611ee3578382906000526020600020018054611e5690612bd1565b80601f0160208091040260200160405190810160405280929190818152602001828054611e8290612bd1565b8015611ecf5780601f10611ea457610100808354040283529160200191611ecf565b820191906000526020600020905b815481529060010190602001808311611eb257829003601f168201915b505050505081526020019060010190611e37565b50505050935082805480602002602001604051908101604052809291908181526020016000905b82821015611fb6578382906000526020600020018054611f2990612bd1565b80601f0160208091040260200160405190810160405280929190818152602001828054611f5590612bd1565b8015611fa25780601f10611f7757610100808354040283529160200191611fa2565b820191906000526020600020905b815481529060010190602001808311611f8557829003601f168201915b505050505081526020019060010190611f0a565b5050505092508180548060200260200160405190810160405280929190818152602001828054801561200757602002820191906000526020600020905b815481526020019060010190808311611ff3575b505050505091508080548060200260200160405190810160405280929190818152602001828054801561205957602002820191906000526020600020905b815481526020019060010190808311612045575b50505050509050935093509350935090919293565b82805461207a90612bd1565b90600052602060002090601f01602090048101928261209c57600085556120e3565b82601f106120b557805160ff19168380011785556120e3565b828001600101855582156120e3579182015b828111156120e25782518255916020019190600101906120c7565b5b5090506120f091906121e4565b5090565b50805460008255906000526020600020908101906121129190612201565b50565b508054600082559060005260206000209081019061213391906121e4565b50565b508054600082559060005260206000209081019061215491906121e4565b50565b82805461216390612bd1565b90600052602060002090601f01602090048101928261218557600085556121d3565b82601f1061219657805485556121d3565b828001600101855582156121d357600052602060002091601f016020900482015b828111156121d25782548255916001019190600101906121b7565b5b5090506121e091906121e4565b5090565b5b808211156121fd5760008160009055506001016121e5565b5090565b5b8082111561222157600081816122189190612225565b50600101612202565b5090565b50805461223190612bd1565b6000825580601f106122435750612262565b601f01602090049060005260206000209081019061226191906121e4565b5b50565b600061227861227384612a4a565b612a25565b90508281526020810184848401111561229457612293612d0f565b5b61229f848285612b8f565b509392505050565b600082601f8301126122bc576122bb612d0a565b5b81356122cc848260208601612265565b91505092915050565b6000813590506122e481612dfc565b92915050565b600060208284031215612300576122ff612d19565b5b600061230e848285016122d5565b91505092915050565b6000806040838503121561232e5761232d612d19565b5b600061233c858286016122d5565b925050602083013567ffffffffffffffff81111561235d5761235c612d14565b5b612369858286016122a7565b9150509250929050565b60008060006060848603121561238c5761238b612d19565b5b600061239a868287016122d5565b935050602084013567ffffffffffffffff8111156123bb576123ba612d14565b5b6123c7868287016122a7565b925050604084013567ffffffffffffffff8111156123e8576123e7612d14565b5b6123f4868287016122a7565b9150509250925092565b6000806000806080858703121561241857612417612d19565b5b6000612426878288016122d5565b945050602085013567ffffffffffffffff81111561244757612446612d14565b5b612453878288016122a7565b935050604085013567ffffffffffffffff81111561247457612473612d14565b5b612480878288016122a7565b925050606085013567ffffffffffffffff8111156124a1576124a0612d14565b5b6124ad878288016122a7565b91505092959194509250565b60006124c583836124fd565b60208301905092915050565b60006124dd838361264c565b905092915050565b60006124f1838361276d565b60208301905092915050565b61250681612b53565b82525050565b61251581612b53565b82525050565b600061252682612aab565b6125308185612afe565b935061253b83612a7b565b8060005b8381101561256c57815161255388826124b9565b975061255e83612ad7565b92505060018101905061253f565b5085935050505092915050565b600061258482612ab6565b61258e8185612b0f565b9350836020820285016125a085612a8b565b8060005b858110156125dc57848403895281516125bd85826124d1565b94506125c883612ae4565b925060208a019950506001810190506125a4565b50829750879550505050505092915050565b60006125f982612ac1565b6126038185612b20565b935061260e83612a9b565b8060005b8381101561263f57815161262688826124e5565b975061263183612af1565b925050600181019050612612565b5085935050505092915050565b600061265782612acc565b6126618185612b31565b9350612671818560208601612b9e565b61267a81612d1e565b840191505092915050565b600061269082612acc565b61269a8185612b42565b93506126aa818560208601612b9e565b6126b381612d1e565b840191505092915050565b60006126cb601083612b42565b91506126d682612d2f565b602082019050919050565b60006126ee601183612b42565b91506126f982612d58565b602082019050919050565b6000612711601483612b42565b915061271c82612d81565b602082019050919050565b6000612734600b83612b42565b915061273f82612daa565b602082019050919050565b6000612757600d83612b42565b915061276282612dd3565b602082019050919050565b61277681612b85565b82525050565b61278581612b85565b82525050565b6000610120820190506127a1600083018c61250c565b81810360208301526127b3818b612685565b905081810360408301526127c7818a612685565b90506127d6606083018961277c565b81810360808301526127e88188612685565b905081810360a08301526127fc8187612685565b905081810360c08301526128108186612685565b905061281f60e083018561277c565b8181036101008301526128328184612685565b90509a9950505050505050505050565b6000608082019050818103600083015261285c8187612579565b905081810360208301526128708186612579565b9050818103604083015261288481856125ee565b9050818103606083015261289881846125ee565b905095945050505050565b60006101408201905081810360008301526128be818d6125ee565b905081810360208301526128d2818c612579565b905081810360408301526128e6818b612579565b905081810360608301526128fa818a6125ee565b9050818103608083015261290e8189612579565b905081810360a08301526129228188612579565b905081810360c08301526129368187612579565b905081810360e083015261294a81866125ee565b905081810361010083015261295f8185612579565b9050818103610120830152612974818461251b565b90509b9a5050505050505050505050565b6000602082019050818103600083015261299e816126be565b9050919050565b600060208201905081810360008301526129be816126e1565b9050919050565b600060208201905081810360008301526129de81612704565b9050919050565b600060208201905081810360008301526129fe81612727565b9050919050565b60006020820190508181036000830152612a1e8161274a565b9050919050565b6000612a2f612a40565b9050612a3b8282612c03565b919050565b6000604051905090565b600067ffffffffffffffff821115612a6557612a64612cdb565b5b612a6e82612d1e565b9050602081019050919050565b6000819050602082019050919050565b6000819050602082019050919050565b6000819050602082019050919050565b600081519050919050565b600081519050919050565b600081519050919050565b600081519050919050565b6000602082019050919050565b6000602082019050919050565b6000602082019050919050565b600082825260208201905092915050565b600082825260208201905092915050565b600082825260208201905092915050565b600082825260208201905092915050565b600082825260208201905092915050565b6000612b5e82612b65565b9050919050565b600073ffffffffffffffffffffffffffffffffffffffff82169050919050565b6000819050919050565b82818337600083830152505050565b60005b83811015612bbc578082015181840152602081019050612ba1565b83811115612bcb576000848401525b50505050565b60006002820490506001821680612be957607f821691505b60208210811415612bfd57612bfc612cac565b5b50919050565b612c0c82612d1e565b810181811067ffffffffffffffff82111715612c2b57612c2a612cdb565b5b80604052505050565b6000612c3f82612b85565b91507fffffffffffffffffffffffffffffffffffffffffffffffffffffffffffffffff821415612c7257612c71612c7d565b5b600182019050919050565b7f4e487b7100000000000000000000000000000000000000000000000000000000600052601160045260246000fd5b7f4e487b7100000000000000000000000000000000000000000000000000000000600052602260045260246000fd5b7f4e487b7100000000000000000000000000000000000000000000000000000000600052604160045260246000fd5b600080fd5b600080fd5b600080fd5b600080fd5b6000601f19601f8301169050919050565b7f4e6f7420656e6f75676820707269636500000000000000000000000000000000600082015250565b7f596f7520617265206e6f742061646d696e000000000000000000000000000000600082015250565b7f546869732070696374757265206e6f7420627579000000000000000000000000600082015250565b7f63616e206e6f7420627579000000000000000000000000000000000000000000600082015250565b7f596f75206172652061646d696e00000000000000000000000000000000000000600082015250565b612e0581612b85565b8114612e1057600080fd5b5056fea264697066735822122017615244e4c910114efc50bf7dd0075abcb4fca522879bce27502160e0a92df464736f6c63430008070033",
  "linkReferences": {},
  "deployedLinkReferences": {}
}