{
  "_format": "hh-sol-artifact-1",
  "contractName": "Shop",
  "sourceName": "contracts/shop.sol",
  "abi": [
    {
      "inputs": [],
      "stateMutability": "nonpayable",
      "type": "constructor"
    },
    {
      "anonymous": false,
      "inputs": [
        {
          "indexed": true,
          "internalType": "address",
          "name": "oldOwner",
          "type": "address"
        },
        {
          "indexed": true,
          "internalType": "address",
          "name": "newOwner",
          "type": "address"
        }
      ],
      "name": "OwnerSet",
      "type": "event"
    },
    {
      "inputs": [
        {
          "internalType": "uint256",
          "name": "id",
          "type": "uint256"
        },
        {
          "internalType": "string",
          "name": "name",
          "type": "string"
        },
        {
          "internalType": "string",
          "name": "deliverAddress",
          "type": "string"
        },
        {
          "internalType": "string",
          "name": "tel",
          "type": "string"
        }
      ],
      "name": "buyPicture",
      "outputs": [],
      "stateMutability": "payable",
      "type": "function"
    },
    {
      "inputs": [
        {
          "internalType": "uint256",
          "name": "price",
          "type": "uint256"
        },
        {
          "internalType": "string",
          "name": "path",
          "type": "string"
        },
        {
          "internalType": "string",
          "name": "picName",
          "type": "string"
        }
      ],
      "name": "createSellPic",
      "outputs": [],
      "stateMutability": "nonpayable",
      "type": "function"
    },
    {
      "inputs": [],
      "name": "getPic",
      "outputs": [
        {
          "internalType": "string[]",
          "name": "",
          "type": "string[]"
        },
        {
          "internalType": "string[]",
          "name": "",
          "type": "string[]"
        },
        {
          "internalType": "uint256[]",
          "name": "",
          "type": "uint256[]"
        },
        {
          "internalType": "uint256[]",
          "name": "",
          "type": "uint256[]"
        }
      ],
      "stateMutability": "view",
      "type": "function"
    },
    {
      "inputs": [
        {
          "internalType": "uint256",
          "name": "",
          "type": "uint256"
        }
      ],
      "name": "pictures",
      "outputs": [
        {
          "internalType": "address",
          "name": "addressWallet",
          "type": "address"
        },
        {
          "internalType": "string",
          "name": "picName",
          "type": "string"
        },
        {
          "internalType": "string",
          "name": "name",
          "type": "string"
        },
        {
          "internalType": "uint256",
          "name": "price",
          "type": "uint256"
        },
        {
          "internalType": "string",
          "name": "deliverAddress",
          "type": "string"
        },
        {
          "internalType": "string",
          "name": "tel",
          "type": "string"
        },
        {
          "internalType": "string",
          "name": "path",
          "type": "string"
        },
        {
          "internalType": "uint256",
          "name": "status",
          "type": "uint256"
        },
        {
          "internalType": "string",
          "name": "trackingNumber",
          "type": "string"
        }
      ],
      "stateMutability": "view",
      "type": "function"
    },
    {
      "inputs": [
        {
          "internalType": "uint256",
          "name": "id",
          "type": "uint256"
        },
        {
          "internalType": "string",
          "name": "tracking",
          "type": "string"
        }
      ],
      "name": "sendPicture",
      "outputs": [],
      "stateMutability": "nonpayable",
      "type": "function"
    }
  ],
  "bytecode": "0x608060405234801561001057600080fd5b5060018081905550336000806101000a81548173ffffffffffffffffffffffffffffffffffffffff021916908373ffffffffffffffffffffffffffffffffffffffff16021790555060008054906101000a900473ffffffffffffffffffffffffffffffffffffffff1673ffffffffffffffffffffffffffffffffffffffff16600073ffffffffffffffffffffffffffffffffffffffff167f342827c97908e5e2f71151c08502a66d44b6f758e3ac2f1de95f02eb95f0a73560405160405180910390a3611b4e806100e26000396000f3fe60806040526004361061004a5760003560e01c806332413f6a1461004f5780634a291142146100785780637f0b886a146100bd578063a0055c80146100e6578063cababab614610102575b600080fd5b34801561005b57600080fd5b50610076600480360381019061007191906112f0565b610130565b005b34801561008457600080fd5b5061009f600480360381019061009a9190611267565b61059b565b6040516100b49998979695949392919061163d565b60405180910390f35b3480156100c957600080fd5b506100e460048036038101906100df9190611294565b610939565b005b61010060048036038101906100fb919061137b565b610ba0565b005b34801561010e57600080fd5b50610117610da6565b60405161012794939291906116f4565b60405180910390f35b60008054906101000a900473ffffffffffffffffffffffffffffffffffffffff1673ffffffffffffffffffffffffffffffffffffffff163373ffffffffffffffffffffffffffffffffffffffff16146101be576040517f08c379a00000000000000000000000000000000000000000000000000000000081526004016101b590611775565b60405180910390fd5b60008054906101000a900473ffffffffffffffffffffffffffffffffffffffff1660066000600154815260200190815260200160002060000160006101000a81548173ffffffffffffffffffffffffffffffffffffffff021916908373ffffffffffffffffffffffffffffffffffffffff16021790555080600660006001548152602001908152602001600020600101908051906020019061026192919061100c565b506040518060400160405280600581526020017f41646d696e00000000000000000000000000000000000000000000000000000081525060066000600154815260200190815260200160002060020190805190602001906102c392919061100c565b5082600660006001548152602001908152602001600020600301819055506040518060400160405280600681526020017f6f66666963650000000000000000000000000000000000000000000000000000815250600660006001548152602001908152602001600020600401908051906020019061034292919061100c565b506040518060400160405280600881526020017f303237373737373700000000000000000000000000000000000000000000000081525060066000600154815260200190815260200160002060050190805190602001906103a492919061100c565b508160066000600154815260200190815260200160002060060190805190602001906103d192919061100c565b50600160066000600154815260200190815260200160002060070181905550600260006103fe9190611092565b6004600061040c91906110b3565b6003600061041a9190611092565b6005600061042891906110b3565b6000600190505b600154811161057d5760016006600083815260200190815260200160002060070154141561056a57600260066000838152602001908152602001600020600601908060018154018082558091505060019003906000526020600020016000909190919091509080546104a090611928565b6104ab9291906110d4565b5060048190806001815401808255809150506001900390600052602060002001600090919091909150556003600660008381526020019081526020016000206001019080600181540180825580915050600190039060005260206000200160009091909190915090805461051e90611928565b6105299291906110d4565b506005600660008381526020019081526020016000206003015490806001815401808255809150506001900390600052602060002001600090919091909150555b80806105759061198b565b91505061042f565b50600160008154809291906105919061198b565b9190505550505050565b60066020528060005260406000206000915090508060000160009054906101000a900473ffffffffffffffffffffffffffffffffffffffff16908060010180546105e490611928565b80601f016020809104026020016040519081016040528092919081815260200182805461061090611928565b801561065d5780601f106106325761010080835404028352916020019161065d565b820191906000526020600020905b81548152906001019060200180831161064057829003601f168201915b50505050509080600201805461067290611928565b80601f016020809104026020016040519081016040528092919081815260200182805461069e90611928565b80156106eb5780601f106106c0576101008083540402835291602001916106eb565b820191906000526020600020905b8154815290600101906020018083116106ce57829003601f168201915b50505050509080600301549080600401805461070690611928565b80601f016020809104026020016040519081016040528092919081815260200182805461073290611928565b801561077f5780601f106107545761010080835404028352916020019161077f565b820191906000526020600020905b81548152906001019060200180831161076257829003601f168201915b50505050509080600501805461079490611928565b80601f01602080910402602001604051908101604052809291908181526020018280546107c090611928565b801561080d5780601f106107e25761010080835404028352916020019161080d565b820191906000526020600020905b8154815290600101906020018083116107f057829003601f168201915b50505050509080600601805461082290611928565b80601f016020809104026020016040519081016040528092919081815260200182805461084e90611928565b801561089b5780601f106108705761010080835404028352916020019161089b565b820191906000526020600020905b81548152906001019060200180831161087e57829003601f168201915b5050505050908060070154908060080180546108b690611928565b80601f01602080910402602001604051908101604052809291908181526020018280546108e290611928565b801561092f5780601f106109045761010080835404028352916020019161092f565b820191906000526020600020905b81548152906001019060200180831161091257829003601f168201915b5050505050905089565b60008054906101000a900473ffffffffffffffffffffffffffffffffffffffff1673ffffffffffffffffffffffffffffffffffffffff163373ffffffffffffffffffffffffffffffffffffffff16146109c7576040517f08c379a00000000000000000000000000000000000000000000000000000000081526004016109be90611775565b60405180910390fd5b6003600660008481526020019081526020016000206007018190555080600660008481526020019081526020016000206008019080519060200190610a0d92919061100c565b5060026000610a1c9190611092565b60046000610a2a91906110b3565b60036000610a389190611092565b60056000610a4691906110b3565b6000600190505b6001548111610b9b57600160066000838152602001908152602001600020600701541415610b885760026006600083815260200190815260200160002060060190806001815401808255809150506001900390600052602060002001600090919091909150908054610abe90611928565b610ac99291906110d4565b50600481908060018154018082558091505060019003906000526020600020016000909190919091505560036006600083815260200190815260200160002060010190806001815401808255809150506001900390600052602060002001600090919091909150908054610b3c90611928565b610b479291906110d4565b506005600660008381526020019081526020016000206003015490806001815401808255809150506001900390600052602060002001600090919091909150555b8080610b939061198b565b915050610a4d565b505050565b60066000858152602001908152602001600020600301543414610bf8576040517f08c379a0000000000000000000000000000000000000000000000000000000008152600401610bef90611755565b60405180910390fd5b60006006600086815260200190815260200160002060000160009054906101000a900473ffffffffffffffffffffffffffffffffffffffff16905060008173ffffffffffffffffffffffffffffffffffffffff166108fc349081150290604051600060405180830381858888f19350505050905080610cac576040517f08c379a0000000000000000000000000000000000000000000000000000000008152600401610ca390611795565b60405180910390fd5b336006600088815260200190815260200160002060000160006101000a81548173ffffffffffffffffffffffffffffffffffffffff021916908373ffffffffffffffffffffffffffffffffffffffff16021790555084600660008881526020019081526020016000206002019080519060200190610d2b92919061100c565b5083600660008881526020019081526020016000206004019080519060200190610d5692919061100c565b5082600660008881526020019081526020016000206005019080519060200190610d8192919061100c565b5060026006600088815260200190815260200160002060070181905550505050505050565b606080606080600260036004600583805480602002602001604051908101604052809291908181526020016000905b82821015610e81578382906000526020600020018054610df490611928565b80601f0160208091040260200160405190810160405280929190818152602001828054610e2090611928565b8015610e6d5780601f10610e4257610100808354040283529160200191610e6d565b820191906000526020600020905b815481529060010190602001808311610e5057829003601f168201915b505050505081526020019060010190610dd5565b50505050935082805480602002602001604051908101604052809291908181526020016000905b82821015610f54578382906000526020600020018054610ec790611928565b80601f0160208091040260200160405190810160405280929190818152602001828054610ef390611928565b8015610f405780601f10610f1557610100808354040283529160200191610f40565b820191906000526020600020905b815481529060010190602001808311610f2357829003601f168201915b505050505081526020019060010190610ea8565b50505050925081805480602002602001604051908101604052809291908181526020018280548015610fa557602002820191906000526020600020905b815481526020019060010190808311610f91575b5050505050915080805480602002602001604051908101604052809291908181526020018280548015610ff757602002820191906000526020600020905b815481526020019060010190808311610fe3575b50505050509050935093509350935090919293565b82805461101890611928565b90600052602060002090601f01602090048101928261103a5760008555611081565b82601f1061105357805160ff1916838001178555611081565b82800160010185558215611081579182015b82811115611080578251825591602001919060010190611065565b5b50905061108e9190611161565b5090565b50805460008255906000526020600020908101906110b0919061117e565b50565b50805460008255906000526020600020908101906110d19190611161565b50565b8280546110e090611928565b90600052602060002090601f0160209004810192826111025760008555611150565b82601f106111135780548555611150565b8280016001018555821561115057600052602060002091601f016020900482015b8281111561114f578254825591600101919060010190611134565b5b50905061115d9190611161565b5090565b5b8082111561117a576000816000905550600101611162565b5090565b5b8082111561119e576000818161119591906111a2565b5060010161117f565b5090565b5080546111ae90611928565b6000825580601f106111c057506111df565b601f0160209004906000526020600020908101906111de9190611161565b5b50565b60006111f56111f0846117da565b6117b5565b90508281526020810184848401111561121157611210611a66565b5b61121c8482856118e6565b509392505050565b600082601f83011261123957611238611a61565b5b81356112498482602086016111e2565b91505092915050565b60008135905061126181611b01565b92915050565b60006020828403121561127d5761127c611a70565b5b600061128b84828501611252565b91505092915050565b600080604083850312156112ab576112aa611a70565b5b60006112b985828601611252565b925050602083013567ffffffffffffffff8111156112da576112d9611a6b565b5b6112e685828601611224565b9150509250929050565b60008060006060848603121561130957611308611a70565b5b600061131786828701611252565b935050602084013567ffffffffffffffff81111561133857611337611a6b565b5b61134486828701611224565b925050604084013567ffffffffffffffff81111561136557611364611a6b565b5b61137186828701611224565b9150509250925092565b6000806000806080858703121561139557611394611a70565b5b60006113a387828801611252565b945050602085013567ffffffffffffffff8111156113c4576113c3611a6b565b5b6113d087828801611224565b935050604085013567ffffffffffffffff8111156113f1576113f0611a6b565b5b6113fd87828801611224565b925050606085013567ffffffffffffffff81111561141e5761141d611a6b565b5b61142a87828801611224565b91505092959194509250565b60006114428383611544565b905092915050565b6000611456838361161f565b60208301905092915050565b61146b816118aa565b82525050565b600061147c8261182b565b6114868185611866565b9350836020820285016114988561180b565b8060005b858110156114d457848403895281516114b58582611436565b94506114c08361184c565b925060208a0199505060018101905061149c565b50829750879550505050505092915050565b60006114f182611836565b6114fb8185611877565b93506115068361181b565b8060005b8381101561153757815161151e888261144a565b975061152983611859565b92505060018101905061150a565b5085935050505092915050565b600061154f82611841565b6115598185611888565b93506115698185602086016118f5565b61157281611a75565b840191505092915050565b600061158882611841565b6115928185611899565b93506115a28185602086016118f5565b6115ab81611a75565b840191505092915050565b60006115c3601083611899565b91506115ce82611a86565b602082019050919050565b60006115e6601183611899565b91506115f182611aaf565b602082019050919050565b6000611609600b83611899565b915061161482611ad8565b602082019050919050565b611628816118dc565b82525050565b611637816118dc565b82525050565b600061012082019050611653600083018c611462565b8181036020830152611665818b61157d565b90508181036040830152611679818a61157d565b9050611688606083018961162e565b818103608083015261169a818861157d565b905081810360a08301526116ae818761157d565b905081810360c08301526116c2818661157d565b90506116d160e083018561162e565b8181036101008301526116e4818461157d565b90509a9950505050505050505050565b6000608082019050818103600083015261170e8187611471565b905081810360208301526117228186611471565b9050818103604083015261173681856114e6565b9050818103606083015261174a81846114e6565b905095945050505050565b6000602082019050818103600083015261176e816115b6565b9050919050565b6000602082019050818103600083015261178e816115d9565b9050919050565b600060208201905081810360008301526117ae816115fc565b9050919050565b60006117bf6117d0565b90506117cb828261195a565b919050565b6000604051905090565b600067ffffffffffffffff8211156117f5576117f4611a32565b5b6117fe82611a75565b9050602081019050919050565b6000819050602082019050919050565b6000819050602082019050919050565b600081519050919050565b600081519050919050565b600081519050919050565b6000602082019050919050565b6000602082019050919050565b600082825260208201905092915050565b600082825260208201905092915050565b600082825260208201905092915050565b600082825260208201905092915050565b60006118b5826118bc565b9050919050565b600073ffffffffffffffffffffffffffffffffffffffff82169050919050565b6000819050919050565b82818337600083830152505050565b60005b838110156119135780820151818401526020810190506118f8565b83811115611922576000848401525b50505050565b6000600282049050600182168061194057607f821691505b6020821081141561195457611953611a03565b5b50919050565b61196382611a75565b810181811067ffffffffffffffff8211171561198257611981611a32565b5b80604052505050565b6000611996826118dc565b91507fffffffffffffffffffffffffffffffffffffffffffffffffffffffffffffffff8214156119c9576119c86119d4565b5b600182019050919050565b7f4e487b7100000000000000000000000000000000000000000000000000000000600052601160045260246000fd5b7f4e487b7100000000000000000000000000000000000000000000000000000000600052602260045260246000fd5b7f4e487b7100000000000000000000000000000000000000000000000000000000600052604160045260246000fd5b600080fd5b600080fd5b600080fd5b600080fd5b6000601f19601f8301169050919050565b7f4e6f7420656e6f75676820707269636500000000000000000000000000000000600082015250565b7f596f7520617265206e6f742061646d696e000000000000000000000000000000600082015250565b7f63616e206e6f7420627579000000000000000000000000000000000000000000600082015250565b611b0a816118dc565b8114611b1557600080fd5b5056fea2646970667358221220f9589f60acacec117178f43b76f7880742647308685ce7e5d81ca95ab5dcb54c64736f6c63430008070033",
  "linkReferences": {},
  "deployedLinkReferences": {}
}