{
  "_format": "hh-sol-artifact-1",
  "contractName": "Shop",
  "sourceName": "contracts/shop.sol",
  "abi": [
    {
      "inputs": [],
      "stateMutability": "nonpayable",
      "type": "constructor"
    },
    {
      "anonymous": false,
      "inputs": [
        {
          "indexed": true,
          "internalType": "address",
          "name": "oldOwner",
          "type": "address"
        },
        {
          "indexed": true,
          "internalType": "address",
          "name": "newOwner",
          "type": "address"
        }
      ],
      "name": "OwnerSet",
      "type": "event"
    },
    {
      "inputs": [
        {
          "internalType": "uint256",
          "name": "id",
          "type": "uint256"
        },
        {
          "internalType": "string",
          "name": "name",
          "type": "string"
        },
        {
          "internalType": "string",
          "name": "deliverAddress",
          "type": "string"
        },
        {
          "internalType": "string",
          "name": "tel",
          "type": "string"
        }
      ],
      "name": "buyPicture",
      "outputs": [],
      "stateMutability": "payable",
      "type": "function"
    },
    {
      "inputs": [
        {
          "internalType": "uint256",
          "name": "price",
          "type": "uint256"
        },
        {
          "internalType": "string",
          "name": "path",
          "type": "string"
        },
        {
          "internalType": "string",
          "name": "picName",
          "type": "string"
        }
      ],
      "name": "createSellPic",
      "outputs": [],
      "stateMutability": "nonpayable",
      "type": "function"
    },
    {
      "inputs": [],
      "name": "getPic",
      "outputs": [
        {
          "internalType": "string[]",
          "name": "",
          "type": "string[]"
        },
        {
          "internalType": "string[]",
          "name": "",
          "type": "string[]"
        },
        {
          "internalType": "uint256[]",
          "name": "",
          "type": "uint256[]"
        },
        {
          "internalType": "uint256[]",
          "name": "",
          "type": "uint256[]"
        }
      ],
      "stateMutability": "view",
      "type": "function"
    },
    {
      "inputs": [
        {
          "internalType": "uint256",
          "name": "",
          "type": "uint256"
        }
      ],
      "name": "pictures",
      "outputs": [
        {
          "internalType": "address",
          "name": "addressWallet",
          "type": "address"
        },
        {
          "internalType": "string",
          "name": "picName",
          "type": "string"
        },
        {
          "internalType": "string",
          "name": "name",
          "type": "string"
        },
        {
          "internalType": "uint256",
          "name": "price",
          "type": "uint256"
        },
        {
          "internalType": "string",
          "name": "deliverAddress",
          "type": "string"
        },
        {
          "internalType": "string",
          "name": "tel",
          "type": "string"
        },
        {
          "internalType": "string",
          "name": "path",
          "type": "string"
        },
        {
          "internalType": "uint256",
          "name": "status",
          "type": "uint256"
        },
        {
          "internalType": "string",
          "name": "trackingNumber",
          "type": "string"
        }
      ],
      "stateMutability": "view",
      "type": "function"
    },
    {
      "inputs": [
        {
          "internalType": "uint256",
          "name": "id",
          "type": "uint256"
        },
        {
          "internalType": "string",
          "name": "tracking",
          "type": "string"
        }
      ],
      "name": "sendPicture",
      "outputs": [],
      "stateMutability": "nonpayable",
      "type": "function"
    }
  ],
  "bytecode": "0x608060405234801561001057600080fd5b5060018081905550336000806101000a81548173ffffffffffffffffffffffffffffffffffffffff021916908373ffffffffffffffffffffffffffffffffffffffff16021790555060008054906101000a900473ffffffffffffffffffffffffffffffffffffffff1673ffffffffffffffffffffffffffffffffffffffff16600073ffffffffffffffffffffffffffffffffffffffff167f342827c97908e5e2f71151c08502a66d44b6f758e3ac2f1de95f02eb95f0a73560405160405180910390a3611a82806100e26000396000f3fe60806040526004361061004a5760003560e01c806332413f6a1461004f5780634a291142146100785780637f0b886a146100bd578063a0055c80146100e6578063cababab614610102575b600080fd5b34801561005b57600080fd5b5061007660048036038101906100719190611224565b610130565b005b34801561008457600080fd5b5061009f600480360381019061009a919061119b565b61057f565b6040516100b499989796959493929190611571565b60405180910390f35b3480156100c957600080fd5b506100e460048036038101906100df91906111c8565b61091d565b005b61010060048036038101906100fb91906112af565b610ad4565b005b34801561010e57600080fd5b50610117610cda565b6040516101279493929190611628565b60405180910390f35b60008054906101000a900473ffffffffffffffffffffffffffffffffffffffff1673ffffffffffffffffffffffffffffffffffffffff163373ffffffffffffffffffffffffffffffffffffffff16146101be576040517f08c379a00000000000000000000000000000000000000000000000000000000081526004016101b5906116a9565b60405180910390fd5b60008054906101000a900473ffffffffffffffffffffffffffffffffffffffff1660066000600154815260200190815260200160002060000160006101000a81548173ffffffffffffffffffffffffffffffffffffffff021916908373ffffffffffffffffffffffffffffffffffffffff160217905550806006600060015481526020019081526020016000206001019080519060200190610261929190610f40565b506040518060400160405280600581526020017f41646d696e00000000000000000000000000000000000000000000000000000081525060066000600154815260200190815260200160002060020190805190602001906102c3929190610f40565b5082600660006001548152602001908152602001600020600301819055506040518060400160405280600681526020017f6f666669636500000000000000000000000000000000000000000000000000008152506006600060015481526020019081526020016000206004019080519060200190610342929190610f40565b506040518060400160405280600881526020017f303237373737373700000000000000000000000000000000000000000000000081525060066000600154815260200190815260200160002060050190805190602001906103a4929190610f40565b508160066000600154815260200190815260200160002060060190805190602001906103d1929190610f40565b50600160066000600154815260200190815260200160002060070181905550600260006103fe9190610fc6565b6004600061040c9190610fe7565b6000600190505b60015481116105615760016006600083815260200190815260200160002060070154141561054e57600260066000838152602001908152602001600020600601908060018154018082558091505060019003906000526020600020016000909190919091509080546104849061185c565b61048f929190611008565b506004819080600181540180825580915050600190039060005260206000200160009091909190915055600360066000838152602001908152602001600020600101908060018154018082558091505060019003906000526020600020016000909190919091509080546105029061185c565b61050d929190611008565b506005600660008381526020019081526020016000206003015490806001815401808255809150506001900390600052602060002001600090919091909150555b8080610559906118bf565b915050610413565b5060016000815480929190610575906118bf565b9190505550505050565b60066020528060005260406000206000915090508060000160009054906101000a900473ffffffffffffffffffffffffffffffffffffffff16908060010180546105c89061185c565b80601f01602080910402602001604051908101604052809291908181526020018280546105f49061185c565b80156106415780601f1061061657610100808354040283529160200191610641565b820191906000526020600020905b81548152906001019060200180831161062457829003601f168201915b5050505050908060020180546106569061185c565b80601f01602080910402602001604051908101604052809291908181526020018280546106829061185c565b80156106cf5780601f106106a4576101008083540402835291602001916106cf565b820191906000526020600020905b8154815290600101906020018083116106b257829003601f168201915b5050505050908060030154908060040180546106ea9061185c565b80601f01602080910402602001604051908101604052809291908181526020018280546107169061185c565b80156107635780601f1061073857610100808354040283529160200191610763565b820191906000526020600020905b81548152906001019060200180831161074657829003601f168201915b5050505050908060050180546107789061185c565b80601f01602080910402602001604051908101604052809291908181526020018280546107a49061185c565b80156107f15780601f106107c6576101008083540402835291602001916107f1565b820191906000526020600020905b8154815290600101906020018083116107d457829003601f168201915b5050505050908060060180546108069061185c565b80601f01602080910402602001604051908101604052809291908181526020018280546108329061185c565b801561087f5780601f106108545761010080835404028352916020019161087f565b820191906000526020600020905b81548152906001019060200180831161086257829003601f168201915b50505050509080600701549080600801805461089a9061185c565b80601f01602080910402602001604051908101604052809291908181526020018280546108c69061185c565b80156109135780601f106108e857610100808354040283529160200191610913565b820191906000526020600020905b8154815290600101906020018083116108f657829003601f168201915b5050505050905089565b60008054906101000a900473ffffffffffffffffffffffffffffffffffffffff1673ffffffffffffffffffffffffffffffffffffffff163373ffffffffffffffffffffffffffffffffffffffff16146109ab576040517f08c379a00000000000000000000000000000000000000000000000000000000081526004016109a2906116a9565b60405180910390fd5b60036006600084815260200190815260200160002060070181905550806006600084815260200190815260200160002060080190805190602001906109f1929190610f40565b5060026000610a009190610fc6565b60046000610a0e9190610fe7565b6000600190505b6001548111610acf57600160066000838152602001908152602001600020600701541415610abc5760026006600083815260200190815260200160002060010190806001815401808255809150506001900390600052602060002001600090919091909150908054610a869061185c565b610a91929190611008565b5060048190806001815401808255809150506001900390600052602060002001600090919091909150555b8080610ac7906118bf565b915050610a15565b505050565b60066000858152602001908152602001600020600301543414610b2c576040517f08c379a0000000000000000000000000000000000000000000000000000000008152600401610b2390611689565b60405180910390fd5b60006006600086815260200190815260200160002060000160009054906101000a900473ffffffffffffffffffffffffffffffffffffffff16905060008173ffffffffffffffffffffffffffffffffffffffff166108fc349081150290604051600060405180830381858888f19350505050905080610be0576040517f08c379a0000000000000000000000000000000000000000000000000000000008152600401610bd7906116c9565b60405180910390fd5b336006600088815260200190815260200160002060000160006101000a81548173ffffffffffffffffffffffffffffffffffffffff021916908373ffffffffffffffffffffffffffffffffffffffff16021790555084600660008881526020019081526020016000206002019080519060200190610c5f929190610f40565b5083600660008881526020019081526020016000206004019080519060200190610c8a929190610f40565b5082600660008881526020019081526020016000206005019080519060200190610cb5929190610f40565b5060026006600088815260200190815260200160002060070181905550505050505050565b606080606080600260036004600583805480602002602001604051908101604052809291908181526020016000905b82821015610db5578382906000526020600020018054610d289061185c565b80601f0160208091040260200160405190810160405280929190818152602001828054610d549061185c565b8015610da15780601f10610d7657610100808354040283529160200191610da1565b820191906000526020600020905b815481529060010190602001808311610d8457829003601f168201915b505050505081526020019060010190610d09565b50505050935082805480602002602001604051908101604052809291908181526020016000905b82821015610e88578382906000526020600020018054610dfb9061185c565b80601f0160208091040260200160405190810160405280929190818152602001828054610e279061185c565b8015610e745780601f10610e4957610100808354040283529160200191610e74565b820191906000526020600020905b815481529060010190602001808311610e5757829003601f168201915b505050505081526020019060010190610ddc565b50505050925081805480602002602001604051908101604052809291908181526020018280548015610ed957602002820191906000526020600020905b815481526020019060010190808311610ec5575b5050505050915080805480602002602001604051908101604052809291908181526020018280548015610f2b57602002820191906000526020600020905b815481526020019060010190808311610f17575b50505050509050935093509350935090919293565b828054610f4c9061185c565b90600052602060002090601f016020900481019282610f6e5760008555610fb5565b82601f10610f8757805160ff1916838001178555610fb5565b82800160010185558215610fb5579182015b82811115610fb4578251825591602001919060010190610f99565b5b509050610fc29190611095565b5090565b5080546000825590600052602060002090810190610fe491906110b2565b50565b50805460008255906000526020600020908101906110059190611095565b50565b8280546110149061185c565b90600052602060002090601f0160209004810192826110365760008555611084565b82601f106110475780548555611084565b8280016001018555821561108457600052602060002091601f016020900482015b82811115611083578254825591600101919060010190611068565b5b5090506110919190611095565b5090565b5b808211156110ae576000816000905550600101611096565b5090565b5b808211156110d257600081816110c991906110d6565b506001016110b3565b5090565b5080546110e29061185c565b6000825580601f106110f45750611113565b601f0160209004906000526020600020908101906111129190611095565b5b50565b60006111296111248461170e565b6116e9565b9050828152602081018484840111156111455761114461199a565b5b61115084828561181a565b509392505050565b600082601f83011261116d5761116c611995565b5b813561117d848260208601611116565b91505092915050565b60008135905061119581611a35565b92915050565b6000602082840312156111b1576111b06119a4565b5b60006111bf84828501611186565b91505092915050565b600080604083850312156111df576111de6119a4565b5b60006111ed85828601611186565b925050602083013567ffffffffffffffff81111561120e5761120d61199f565b5b61121a85828601611158565b9150509250929050565b60008060006060848603121561123d5761123c6119a4565b5b600061124b86828701611186565b935050602084013567ffffffffffffffff81111561126c5761126b61199f565b5b61127886828701611158565b925050604084013567ffffffffffffffff8111156112995761129861199f565b5b6112a586828701611158565b9150509250925092565b600080600080608085870312156112c9576112c86119a4565b5b60006112d787828801611186565b945050602085013567ffffffffffffffff8111156112f8576112f761199f565b5b61130487828801611158565b935050604085013567ffffffffffffffff8111156113255761132461199f565b5b61133187828801611158565b925050606085013567ffffffffffffffff8111156113525761135161199f565b5b61135e87828801611158565b91505092959194509250565b60006113768383611478565b905092915050565b600061138a8383611553565b60208301905092915050565b61139f816117de565b82525050565b60006113b08261175f565b6113ba818561179a565b9350836020820285016113cc8561173f565b8060005b8581101561140857848403895281516113e9858261136a565b94506113f483611780565b925060208a019950506001810190506113d0565b50829750879550505050505092915050565b60006114258261176a565b61142f81856117ab565b935061143a8361174f565b8060005b8381101561146b578151611452888261137e565b975061145d8361178d565b92505060018101905061143e565b5085935050505092915050565b600061148382611775565b61148d81856117bc565b935061149d818560208601611829565b6114a6816119a9565b840191505092915050565b60006114bc82611775565b6114c681856117cd565b93506114d6818560208601611829565b6114df816119a9565b840191505092915050565b60006114f76010836117cd565b9150611502826119ba565b602082019050919050565b600061151a6011836117cd565b9150611525826119e3565b602082019050919050565b600061153d600b836117cd565b915061154882611a0c565b602082019050919050565b61155c81611810565b82525050565b61156b81611810565b82525050565b600061012082019050611587600083018c611396565b8181036020830152611599818b6114b1565b905081810360408301526115ad818a6114b1565b90506115bc6060830189611562565b81810360808301526115ce81886114b1565b905081810360a08301526115e281876114b1565b905081810360c08301526115f681866114b1565b905061160560e0830185611562565b81810361010083015261161881846114b1565b90509a9950505050505050505050565b6000608082019050818103600083015261164281876113a5565b9050818103602083015261165681866113a5565b9050818103604083015261166a818561141a565b9050818103606083015261167e818461141a565b905095945050505050565b600060208201905081810360008301526116a2816114ea565b9050919050565b600060208201905081810360008301526116c28161150d565b9050919050565b600060208201905081810360008301526116e281611530565b9050919050565b60006116f3611704565b90506116ff828261188e565b919050565b6000604051905090565b600067ffffffffffffffff82111561172957611728611966565b5b611732826119a9565b9050602081019050919050565b6000819050602082019050919050565b6000819050602082019050919050565b600081519050919050565b600081519050919050565b600081519050919050565b6000602082019050919050565b6000602082019050919050565b600082825260208201905092915050565b600082825260208201905092915050565b600082825260208201905092915050565b600082825260208201905092915050565b60006117e9826117f0565b9050919050565b600073ffffffffffffffffffffffffffffffffffffffff82169050919050565b6000819050919050565b82818337600083830152505050565b60005b8381101561184757808201518184015260208101905061182c565b83811115611856576000848401525b50505050565b6000600282049050600182168061187457607f821691505b6020821081141561188857611887611937565b5b50919050565b611897826119a9565b810181811067ffffffffffffffff821117156118b6576118b5611966565b5b80604052505050565b60006118ca82611810565b91507fffffffffffffffffffffffffffffffffffffffffffffffffffffffffffffffff8214156118fd576118fc611908565b5b600182019050919050565b7f4e487b7100000000000000000000000000000000000000000000000000000000600052601160045260246000fd5b7f4e487b7100000000000000000000000000000000000000000000000000000000600052602260045260246000fd5b7f4e487b7100000000000000000000000000000000000000000000000000000000600052604160045260246000fd5b600080fd5b600080fd5b600080fd5b600080fd5b6000601f19601f8301169050919050565b7f4e6f7420656e6f75676820707269636500000000000000000000000000000000600082015250565b7f596f7520617265206e6f742061646d696e000000000000000000000000000000600082015250565b7f63616e206e6f7420627579000000000000000000000000000000000000000000600082015250565b611a3e81611810565b8114611a4957600080fd5b5056fea26469706673582212207ea65a2dd74c2739ce1643eb1a08ac3eab7751be21b014c07d24df504f96993564736f6c63430008070033",
  "linkReferences": {},
  "deployedLinkReferences": {}
}